{
    "_format": "hh-sol-artifact-1",
    "contractName": "MeetingBooking",
    "sourceName": "contracts/StakeToMeet.sol",
    "abi": [
        {
            "anonymous": false,
            "inputs": [
                {
                    "indexed": false,
                    "internalType": "uint256",
                    "name": "meetingId",
                    "type": "uint256"
                },
                {
                    "indexed": false,
                    "internalType": "address",
                    "name": "booker",
                    "type": "address"
                },
                {
                    "indexed": false,
                    "internalType": "address",
                    "name": "booked",
                    "type": "address"
                },
                {
                    "indexed": false,
                    "internalType": "uint256",
                    "name": "startTime",
                    "type": "uint256"
                }
            ],
            "name": "MeetingBooked",
            "type": "event"
        },
        {
            "anonymous": false,
            "inputs": [
                {
                    "indexed": false,
                    "internalType": "uint256",
                    "name": "meetingId",
                    "type": "uint256"
                }
            ],
            "name": "MeetingCompleted",
            "type": "event"
        },
        {
            "anonymous": false,
            "inputs": [
                {
                    "indexed": false,
                    "internalType": "uint256",
                    "name": "meetingId",
                    "type": "uint256"
                },
                {
                    "indexed": false,
                    "internalType": "address",
                    "name": "recipient",
                    "type": "address"
                },
                {
                    "indexed": false,
                    "internalType": "uint256",
                    "name": "amount",
                    "type": "uint256"
                }
            ],
            "name": "StakeReturned",
            "type": "event"
        },
        {
            "anonymous": false,
            "inputs": [
                {
                    "indexed": false,
                    "internalType": "uint256",
                    "name": "meetingId",
                    "type": "uint256"
                },
                {
                    "indexed": false,
                    "internalType": "address",
                    "name": "user",
                    "type": "address"
                }
            ],
            "name": "UserCheckedIn",
            "type": "event"
        },
        {
            "anonymous": false,
            "inputs": [
                {
                    "indexed": false,
                    "internalType": "address",
                    "name": "user",
                    "type": "address"
                }
            ],
            "name": "UserRegistered",
            "type": "event"
        },
        {
            "inputs": [
                {
                    "internalType": "address",
                    "name": "_booked",
                    "type": "address"
                },
                {
                    "internalType": "uint256",
                    "name": "_startTime",
                    "type": "uint256"
                }
            ],
            "name": "bookMeeting",
            "outputs": [],
            "stateMutability": "payable",
            "type": "function"
        },
        {
            "inputs": [
                {
                    "internalType": "uint256",
                    "name": "_meetingId",
                    "type": "uint256"
                }
            ],
            "name": "checkIn",
            "outputs": [],
            "stateMutability": "nonpayable",
            "type": "function"
        },
        {
            "inputs": [
                {
                    "internalType": "uint256",
                    "name": "_meetingId",
                    "type": "uint256"
                }
            ],
            "name": "handleEndedMeeting",
            "outputs": [],
            "stateMutability": "nonpayable",
            "type": "function"
        },
        {
            "inputs": [
                {
                    "internalType": "uint256",
                    "name": "",
                    "type": "uint256"
                }
            ],
            "name": "meetings",
            "outputs": [
                {
                    "internalType": "address",
                    "name": "booker",
                    "type": "address"
                },
                {
                    "internalType": "address",
                    "name": "booked",
                    "type": "address"
                },
                {
                    "internalType": "uint256",
                    "name": "startTime",
                    "type": "uint256"
                },
                {
                    "internalType": "uint256",
                    "name": "stakedAmount",
                    "type": "uint256"
                },
                {
                    "internalType": "bool",
                    "name": "bookerCheckedIn",
                    "type": "bool"
                },
                {
                    "internalType": "bool",
                    "name": "bookedCheckedIn",
                    "type": "bool"
                },
                {
                    "internalType": "bool",
                    "name": "completed",
                    "type": "bool"
                }
            ],
            "stateMutability": "view",
            "type": "function"
        },
        {
            "inputs": [],
            "name": "nextMeetingId",
            "outputs": [
                {
                    "internalType": "uint256",
                    "name": "",
                    "type": "uint256"
                }
            ],
            "stateMutability": "view",
            "type": "function"
        },
        {
            "inputs": [],
            "name": "registerUser",
            "outputs": [],
            "stateMutability": "nonpayable",
            "type": "function"
        },
        {
            "inputs": [
                {
                    "internalType": "address",
                    "name": "",
                    "type": "address"
                }
            ],
            "name": "registeredUsers",
            "outputs": [
                {
                    "internalType": "bool",
                    "name": "",
                    "type": "bool"
                }
            ],
            "stateMutability": "view",
            "type": "function"
        }
    ],
    "bytecode": "0x608060405234801561001057600080fd5b50610b07806100206000396000f3fe6080604052600436106100705760003560e01c80636960d0551161004e5780636960d055146100f55780638460168a14610115578063e95a644f146101c8578063feec9b95146101e857600080fd5b80630e50cee5146100755780633bdcbc96146100ba5780634d3820eb146100de575b600080fd5b34801561008157600080fd5b506100a5610090366004610a2c565b60006020819052908152604090205460ff1681565b60405190151581526020015b60405180910390f35b3480156100c657600080fd5b506100d060025481565b6040519081526020016100b1565b3480156100ea57600080fd5b506100f36101fb565b005b34801561010157600080fd5b506100f3610110366004610a4e565b6102ae565b34801561012157600080fd5b50610182610130366004610a4e565b6001602081905260009182526040909120805491810154600282015460038301546004909301546001600160a01b039485169490921692909160ff808216916101008104821691620100009091041687565b604080516001600160a01b03988916815297909616602088015294860193909352606085019190915215156080840152151560a0830152151560c082015260e0016100b1565b3480156101d457600080fd5b506100f36101e3366004610a4e565b610377565b6100f36101f6366004610a67565b610552565b3360009081526020819052604090205460ff16156102605760405162461bcd60e51b815260206004820152601760248201527f5573657220616c7265616479207265676973746572656400000000000000000060448201526064015b60405180910390fd5b3360008181526020818152604091829020805460ff1916600117905590519182527f54db7a5cb4735e1aac1f53db512d3390390bb6637bd30ad4bf9fc98667d9b9b9910160405180910390a1565b6000818152600160205260409020600481015462010000900460ff16156103175760405162461bcd60e51b815260206004820152601960248201527f4d656574696e6720616c726561647920636f6d706c65746564000000000000006044820152606401610257565b8060020154421161036a5760405162461bcd60e51b815260206004820152601a60248201527f4d656574696e67206861736e27742073746172746564207965740000000000006044820152606401610257565b61037382610815565b5050565b600081815260016020526040902080546001600160a01b03163314806103a9575060018101546001600160a01b031633145b6103f55760405162461bcd60e51b815260206004820152601860248201527f4e6f742070617274206f662074686973206d656574696e6700000000000000006044820152606401610257565b600481015462010000900460ff16156104505760405162461bcd60e51b815260206004820152601960248201527f4d656574696e6720616c726561647920636f6d706c65746564000000000000006044820152606401610257565b80600201544210156104a45760405162461bcd60e51b815260206004820152601a60248201527f4d656574696e67206861736e27742073746172746564207965740000000000006044820152606401610257565b80546001600160a01b031633036104c95760048101805460ff191660011790556104ef565b60018101546001600160a01b031633036104ef5760048101805461ff0019166101001790555b604080518381523360208201527fdffb71967a809b1a5bcfbb486a7637944269486190621283aefb3924b3944c35910160405180910390a1600481015460ff16801561054457506004810154610100900460ff165b156103735761037382610815565b3360009081526020819052604090205460ff166105b15760405162461bcd60e51b815260206004820152601560248201527f426f6f6b6572206e6f74207265676973746572656400000000000000000000006044820152606401610257565b6001600160a01b03821660009081526020819052604090205460ff166106195760405162461bcd60e51b815260206004820152601c60248201527f426f6f6b656420706572736f6e206e6f742072656769737465726564000000006044820152606401610257565b4281116106685760405162461bcd60e51b815260206004820181905260248201527f53746172742074696d65206d75737420626520696e20746865206675747572656044820152606401610257565b600034116106b85760405162461bcd60e51b815260206004820152601360248201527f4d757374207374616b6520736f6d6520455448000000000000000000000000006044820152606401610257565b60028054600091826106c983610a91565b909155506040805160e081018252338082526001600160a01b038781166020808501918252848601898152346060870190815260006080880181815260a0890182815260c08a018381528c8452600196879052928b902099518a549089167fffffffffffffffffffffffff0000000000000000000000000000000000000000918216178b559651958a018054969098169590961694909417909555905160028701555160038601555160049094018054915192511515620100000262ff0000199315156101000261ff00199615159690961661ffff199093169290921794909417919091161790915590519192507fc55e814d977b46df4870fbcbcf6f81fb0587388cd4ad7432a58e7acebc9fa94391610808918491879087909384526001600160a01b03928316602085015291166040830152606082015260800190565b60405180910390a1505050565b600081815260016020526040902060048101805462ff0000198116620100001790915560ff16801561085057506004810154610100900460ff165b156108e657805460038201546040516001600160a01b039092169181156108fc0291906000818181858888f19350505050158015610892573d6000803e3d6000fd5b5080546003820154604080518581526001600160a01b0390931660208401528201527f0d736493ece6b7d52e34dd028d3d9d0aa75de37339f3da6b3514e70e231ed2a59060600160405180910390a16109d9565b600481015460ff16801561090457506004810154610100900460ff16155b1561094657805460038201546040516001600160a01b039092169181156108fc0291906000818181858888f19350505050158015610892573d6000803e3d6000fd5b600181015460038201546040516001600160a01b039092169181156108fc0291906000818181858888f19350505050158015610986573d6000803e3d6000fd5b5060018101546003820154604080518581526001600160a01b0390931660208401528201527f0d736493ece6b7d52e34dd028d3d9d0aa75de37339f3da6b3514e70e231ed2a59060600160405180910390a15b6040518281527fabfa88088d34b9649545a24a7ebc383535ecdfd164192277d54815d011059b9b9060200160405180910390a15050565b80356001600160a01b0381168114610a2757600080fd5b919050565b600060208284031215610a3e57600080fd5b610a4782610a10565b9392505050565b600060208284031215610a6057600080fd5b5035919050565b60008060408385031215610a7a57600080fd5b610a8383610a10565b946020939093013593505050565b600060018201610aca577f4e487b7100000000000000000000000000000000000000000000000000000000600052601160045260246000fd5b506001019056fea26469706673582212201e46c5cafb833c1aa904f461c6b1ff402dad3e840b82a46b768600e78c8be87064736f6c63430008130033",
    "linkReferences": {},
    "deployedLinkReferences": {}
}